{
  "contractName": "Guestbook",
  "abi": [
    {
      "anonymous": false,
      "inputs": [
        {
          "indexed": false,
          "internalType": "string",
          "name": "message",
          "type": "string"
        },
        {
          "indexed": false,
          "internalType": "bytes32",
          "name": "name",
          "type": "bytes32"
        }
      ],
      "name": "SignatureAdded",
      "type": "event"
    },
    {
      "constant": false,
      "inputs": [
        {
          "internalType": "bytes32",
          "name": "name",
          "type": "bytes32"
        }
      ],
      "name": "signBook",
      "outputs": [],
      "payable": false,
      "stateMutability": "nonpayable",
      "type": "function"
    },
    {
      "constant": true,
      "inputs": [],
      "name": "getNames",
      "outputs": [
        {
          "internalType": "bytes32[]",
          "name": "",
          "type": "bytes32[]"
        }
      ],
      "payable": false,
      "stateMutability": "view",
      "type": "function"
    }
  ],
  "bytecode": "0x608060405234801561001057600080fd5b506101f4806100206000396000f3fe608060405234801561001057600080fd5b50600436106100365760003560e01c8063041be4f81461003b578063cd838f0f14610069575b600080fd5b6100676004803603602081101561005157600080fd5b81019080803590602001909291905050506100c8565b005b610071610167565b6040518080602001828103825283818151815260200191508051906020019060200280838360005b838110156100b4578082015181840152602081019050610099565b505050509050019250505060405180910390f35b60008190806001815401808255809150509060018203906000526020600020016000909192909190915055507f52459aff3b9a588e65d060c0affd7121b01e01e17dfcc75e0050b9035822e3198160405180806020018381526020018281038252601b8152602001807f4e657565205369676e617475722068696e7a75676566c3bc67742100000000008152506020019250505060405180910390a150565b606060008054806020026020016040519081016040528092919081815260200182805480156101b557602002820191906000526020600020905b8154815260200190600101908083116101a1575b505050505090509056fea265627a7a723158206c83b5ef36bb25f8ae4c4664ccfe5d0c90795c2c9f66e54d801ba67c274b0ee964736f6c63430005100032",
  "source": "// SPDX-License-Identifier: MIT\r\npragma solidity >=0.4.22 <0.9.0;\r\n\r\ncontract Guestbook {\r\n    event SignatureAdded(string message, bytes32 name);\r\n\r\n    bytes32[] guests;\r\n\r\n    function signBook(bytes32 name) public {\r\n        guests.push(name);\r\n        emit SignatureAdded(\"Neue Signatur hinzugefügt!\", name);\r\n    }\r\n\r\n    function getNames() public view returns (bytes32[] memory) {\r\n        return guests;\r\n    }\r\n}",
  "sourcePath": "D:/Dev/Solidity/guestbook/contracts/Guestbook.sol",
  "compiler": {
    "name": "solc",
    "version": "0.5.16+commit.9c3226ce.Emscripten.clang"
  },
  "schemaVersion": "3.3.4",
  "updatedAt": "2021-04-01T06:33:05.918Z",
  "networkType": "ethereum",
  "devdoc": {
    "methods": {}
  },
  "userdoc": {
    "methods": {}
  }
}